:100000000C9434000C943E000C943E000C943E0082
:100010000C943E000C943E000C943E000C943E0068
:100020000C943E000C943E000C943E000C943E0058
:100030000C943E000C943E000C943E000C943E0048
:100040000C943E000C943E000C943E000C943E0038
:100050000C943E000C943E000C943E000C943E0028
:100060000C943E000C943E0011241FBECFEFD8E04C
:10007000DEBFCDBF0E9440000C945E000C940000D7
:1000800084B1806284B985B1806285B92FEF83ED38
:1000900090E3215080409040E1F700C00000000054
:1000A00085B18F7D85B92FEF83ED90E3215080409E
:1000B0009040E1F700C000000000E5CFF894FFCFCA
:00000001FF
